{
  "contractName": "TapTapSwap",
  "abi": [
    {
      "inputs": [
        {
          "internalType": "contract ERC20",
          "name": "_baseToken",
          "type": "address"
        }
      ],
      "stateMutability": "nonpayable",
      "type": "constructor"
    },
    {
      "anonymous": false,
      "inputs": [
        {
          "indexed": true,
          "internalType": "bytes32",
          "name": "role",
          "type": "bytes32"
        },
        {
          "indexed": true,
          "internalType": "bytes32",
          "name": "previousAdminRole",
          "type": "bytes32"
        },
        {
          "indexed": true,
          "internalType": "bytes32",
          "name": "newAdminRole",
          "type": "bytes32"
        }
      ],
      "name": "RoleAdminChanged",
      "type": "event"
    },
    {
      "anonymous": false,
      "inputs": [
        {
          "indexed": true,
          "internalType": "bytes32",
          "name": "role",
          "type": "bytes32"
        },
        {
          "indexed": true,
          "internalType": "address",
          "name": "account",
          "type": "address"
        },
        {
          "indexed": true,
          "internalType": "address",
          "name": "sender",
          "type": "address"
        }
      ],
      "name": "RoleGranted",
      "type": "event"
    },
    {
      "anonymous": false,
      "inputs": [
        {
          "indexed": true,
          "internalType": "bytes32",
          "name": "role",
          "type": "bytes32"
        },
        {
          "indexed": true,
          "internalType": "address",
          "name": "account",
          "type": "address"
        },
        {
          "indexed": true,
          "internalType": "address",
          "name": "sender",
          "type": "address"
        }
      ],
      "name": "RoleRevoked",
      "type": "event"
    },
    {
      "anonymous": false,
      "inputs": [
        {
          "indexed": true,
          "internalType": "address",
          "name": "recipient",
          "type": "address"
        },
        {
          "indexed": false,
          "internalType": "bytes8",
          "name": "trans",
          "type": "bytes8"
        },
        {
          "indexed": false,
          "internalType": "uint256",
          "name": "amount",
          "type": "uint256"
        }
      ],
      "name": "Swapped",
      "type": "event"
    },
    {
      "inputs": [],
      "name": "DEFAULT_ADMIN_ROLE",
      "outputs": [
        {
          "internalType": "bytes32",
          "name": "",
          "type": "bytes32"
        }
      ],
      "stateMutability": "view",
      "type": "function"
    },
    {
      "inputs": [],
      "name": "SIGNER_ROLE",
      "outputs": [
        {
          "internalType": "bytes32",
          "name": "",
          "type": "bytes32"
        }
      ],
      "stateMutability": "view",
      "type": "function"
    },
    {
      "inputs": [
        {
          "internalType": "bytes32",
          "name": "role",
          "type": "bytes32"
        }
      ],
      "name": "getRoleAdmin",
      "outputs": [
        {
          "internalType": "bytes32",
          "name": "",
          "type": "bytes32"
        }
      ],
      "stateMutability": "view",
      "type": "function"
    },
    {
      "inputs": [
        {
          "internalType": "bytes32",
          "name": "role",
          "type": "bytes32"
        },
        {
          "internalType": "uint256",
          "name": "index",
          "type": "uint256"
        }
      ],
      "name": "getRoleMember",
      "outputs": [
        {
          "internalType": "address",
          "name": "",
          "type": "address"
        }
      ],
      "stateMutability": "view",
      "type": "function"
    },
    {
      "inputs": [
        {
          "internalType": "bytes32",
          "name": "role",
          "type": "bytes32"
        }
      ],
      "name": "getRoleMemberCount",
      "outputs": [
        {
          "internalType": "uint256",
          "name": "",
          "type": "uint256"
        }
      ],
      "stateMutability": "view",
      "type": "function"
    },
    {
      "inputs": [
        {
          "internalType": "bytes32",
          "name": "role",
          "type": "bytes32"
        },
        {
          "internalType": "address",
          "name": "account",
          "type": "address"
        }
      ],
      "name": "grantRole",
      "outputs": [],
      "stateMutability": "nonpayable",
      "type": "function"
    },
    {
      "inputs": [
        {
          "internalType": "bytes32",
          "name": "role",
          "type": "bytes32"
        },
        {
          "internalType": "address",
          "name": "account",
          "type": "address"
        }
      ],
      "name": "hasRole",
      "outputs": [
        {
          "internalType": "bool",
          "name": "",
          "type": "bool"
        }
      ],
      "stateMutability": "view",
      "type": "function"
    },
    {
      "inputs": [
        {
          "internalType": "bytes32",
          "name": "role",
          "type": "bytes32"
        },
        {
          "internalType": "address",
          "name": "account",
          "type": "address"
        }
      ],
      "name": "renounceRole",
      "outputs": [],
      "stateMutability": "nonpayable",
      "type": "function"
    },
    {
      "inputs": [
        {
          "internalType": "bytes32",
          "name": "role",
          "type": "bytes32"
        },
        {
          "internalType": "address",
          "name": "account",
          "type": "address"
        }
      ],
      "name": "revokeRole",
      "outputs": [],
      "stateMutability": "nonpayable",
      "type": "function"
    },
    {
      "inputs": [
        {
          "internalType": "uint256",
          "name": "amount",
          "type": "uint256"
        },
        {
          "internalType": "bytes8",
          "name": "trans",
          "type": "bytes8"
        },
        {
          "internalType": "uint8",
          "name": "v",
          "type": "uint8"
        },
        {
          "internalType": "bytes32",
          "name": "r",
          "type": "bytes32"
        },
        {
          "internalType": "bytes32",
          "name": "s",
          "type": "bytes32"
        }
      ],
      "name": "claim",
      "outputs": [],
      "stateMutability": "nonpayable",
      "type": "function"
    },
    {
      "inputs": [
        {
          "internalType": "bytes8",
          "name": "trans",
          "type": "bytes8"
        }
      ],
      "name": "hasClaimed",
      "outputs": [
        {
          "internalType": "bool",
          "name": "",
          "type": "bool"
        }
      ],
      "stateMutability": "view",
      "type": "function"
    },
    {
      "inputs": [],
      "name": "drain",
      "outputs": [],
      "stateMutability": "nonpayable",
      "type": "function"
    },
    {
      "inputs": [
        {
          "internalType": "contract ERC20",
          "name": "_baseToken",
          "type": "address"
        }
      ],
      "name": "setBaseToken",
      "outputs": [],
      "stateMutability": "nonpayable",
      "type": "function"
    },
    {
      "inputs": [],
      "name": "getBaseToken",
      "outputs": [
        {
          "internalType": "contract ERC20",
          "name": "",
          "type": "address"
        }
      ],
      "stateMutability": "view",
      "type": "function"
    }
  ],
  "bytecode": "0x60806040523480156200001157600080fd5b50604051620017dd380380620017dd833981810160405260208110156200003757600080fd5b8101908080519060200190929190505050600073ffffffffffffffffffffffffffffffffffffffff168173ffffffffffffffffffffffffffffffffffffffff1614156200008357600080fd5b620000a76000801b6200009b6200014560201b60201c565b6200014d60201b60201c565b620000fd60405180807f5349474e45525f524f4c45000000000000000000000000000000000000000000815250600b0190506040518091039020620000f16200014560201b60201c565b6200014d60201b60201c565b80600260006101000a81548173ffffffffffffffffffffffffffffffffffffffff021916908373ffffffffffffffffffffffffffffffffffffffff16021790555050620002db565b600033905090565b6200015f82826200016360201b60201c565b5050565b62000191816000808581526020019081526020016000206000016200020660201b6200119d1790919060201c565b156200020257620001a76200014560201b60201c565b73ffffffffffffffffffffffffffffffffffffffff168173ffffffffffffffffffffffffffffffffffffffff16837f2f8788117e7eff1d82e926ec794901d17c78024a50270940304540a733656f0d60405160405180910390a45b5050565b600062000236836000018373ffffffffffffffffffffffffffffffffffffffff1660001b6200023e60201b60201c565b905092915050565b6000620002528383620002b860201b60201c565b620002ad578260000182908060018154018082558091505060019003906000526020600020016000909190919091505582600001805490508360010160008481526020019081526020016000208190555060019050620002b2565b600090505b92915050565b600080836001016000848152602001908152602001600020541415905092915050565b6114f280620002eb6000396000f3fe608060405234801561001057600080fd5b50600436106100ea5760003560e01c806391d148541161008c578063a1ebf35d11610066578063a1ebf35d14610418578063a217fddf14610436578063ca15c87314610454578063d547741f14610496576100ea565b806391d148541461035e5780639890220b146103c457806398acd7a6146103ce576100ea565b80632f2ff15d116100c85780632f2ff15d146101d657806336568abe1461022457806363e85557146102725780639010d07c146102e6576100ea565b806316bb6c13146100ef5780631cd033cb14610133578063248a9ca314610194575b600080fd5b6101316004803603602081101561010557600080fd5b81019080803573ffffffffffffffffffffffffffffffffffffffff1690602001909291905050506104e4565b005b61017a6004803603602081101561014957600080fd5b81019080803577ffffffffffffffffffffffffffffffffffffffffffffffff191690602001909291905050506105a7565b604051808215151515815260200191505060405180910390f35b6101c0600480360360208110156101aa57600080fd5b8101908080359060200190929190505050610607565b6040518082815260200191505060405180910390f35b610222600480360360408110156101ec57600080fd5b8101908080359060200190929190803573ffffffffffffffffffffffffffffffffffffffff169060200190929190505050610626565b005b6102706004803603604081101561023a57600080fd5b8101908080359060200190929190803573ffffffffffffffffffffffffffffffffffffffff1690602001909291905050506106af565b005b6102e4600480360360a081101561028857600080fd5b8101908080359060200190929190803577ffffffffffffffffffffffffffffffffffffffffffffffff19169060200190929190803560ff1690602001909291908035906020019092919080359060200190929190505050610748565b005b61031c600480360360408110156102fc57600080fd5b810190808035906020019092919080359060200190929190505050610bf6565b604051808273ffffffffffffffffffffffffffffffffffffffff1673ffffffffffffffffffffffffffffffffffffffff16815260200191505060405180910390f35b6103aa6004803603604081101561037457600080fd5b8101908080359060200190929190803573ffffffffffffffffffffffffffffffffffffffff169060200190929190505050610c27565b604051808215151515815260200191505060405180910390f35b6103cc610c58565b005b6103d6610e9f565b604051808273ffffffffffffffffffffffffffffffffffffffff1673ffffffffffffffffffffffffffffffffffffffff16815260200191505060405180910390f35b610420610ec9565b6040518082815260200191505060405180910390f35b61043e610f02565b6040518082815260200191505060405180910390f35b6104806004803603602081101561046a57600080fd5b8101908080359060200190929190505050610f09565b6040518082815260200191505060405180910390f35b6104e2600480360360408110156104ac57600080fd5b8101908080359060200190929190803573ffffffffffffffffffffffffffffffffffffffff169060200190929190505050610f2f565b005b6104f16000801b33610c27565b610563576040517f08c379a00000000000000000000000000000000000000000000000000000000081526004018080602001828103825260168152602001807f43616c6c6572206973206e6f7420616e2061646d696e0000000000000000000081525060200191505060405180910390fd5b80600260006101000a81548173ffffffffffffffffffffffffffffffffffffffff021916908373ffffffffffffffffffffffffffffffffffffffff16021790555050565b6000600160008377ffffffffffffffffffffffffffffffffffffffffffffffff191677ffffffffffffffffffffffffffffffffffffffffffffffff1916815260200190815260200160002060009054906101000a900460ff169050919050565b6000806000838152602001908152602001600020600201549050919050565b61064c60008084815260200190815260200160002060020154610647610fb8565b610c27565b6106a1576040517f08c379a000000000000000000000000000000000000000000000000000000000815260040180806020018281038252602f81526020018061142f602f913960400191505060405180910390fd5b6106ab8282610fc0565b5050565b6106b7610fb8565b73ffffffffffffffffffffffffffffffffffffffff168173ffffffffffffffffffffffffffffffffffffffff161461073a576040517f08c379a000000000000000000000000000000000000000000000000000000000815260040180806020018281038252602f81526020018061148e602f913960400191505060405180910390fd5b6107448282611053565b5050565b60001515600160008677ffffffffffffffffffffffffffffffffffffffffffffffff191677ffffffffffffffffffffffffffffffffffffffffffffffff1916815260200190815260200160002060009054906101000a900460ff16151514610818576040517f08c379a000000000000000000000000000000000000000000000000000000000815260040180806020018281038252601b8152602001807f5472616e73616374696f6e20616c726561647920636c61696d6564000000000081525060200191505060405180910390fd5b60006108f533878730604051602001808573ffffffffffffffffffffffffffffffffffffffff1673ffffffffffffffffffffffffffffffffffffffff1660601b81526014018481526020018377ffffffffffffffffffffffffffffffffffffffffffffffff191677ffffffffffffffffffffffffffffffffffffffffffffffff191681526008018273ffffffffffffffffffffffffffffffffffffffff1673ffffffffffffffffffffffffffffffffffffffff1660601b8152601401945050505050604051602081830303815290604052805190602001206110e6565b9050600060018286868660405160008152602001604052604051808581526020018460ff1660ff1681526020018381526020018281526020019450505050506020604051602081039080840390855afa158015610956573d6000803e3d6000fd5b5050506020604051035190506109a160405180807f5349474e45525f524f4c45000000000000000000000000000000000000000000815250600b019050604051809103902082610c27565b610a13576040517f08c379a000000000000000000000000000000000000000000000000000000000815260040180806020018281038252600e8152602001807f496e76616c6964207369676e657200000000000000000000000000000000000081525060200191505060405180910390fd5b600260009054906101000a900473ffffffffffffffffffffffffffffffffffffffff1673ffffffffffffffffffffffffffffffffffffffff1663a9059cbb33896040518363ffffffff1660e01b8152600401808373ffffffffffffffffffffffffffffffffffffffff1673ffffffffffffffffffffffffffffffffffffffff16815260200182815260200192505050602060405180830381600087803b158015610abc57600080fd5b505af1158015610ad0573d6000803e3d6000fd5b505050506040513d6020811015610ae657600080fd5b8101908080519060200190929190505050610b0057600080fd5b60018060008877ffffffffffffffffffffffffffffffffffffffffffffffff191677ffffffffffffffffffffffffffffffffffffffffffffffff1916815260200190815260200160002060006101000a81548160ff0219169083151502179055503373ffffffffffffffffffffffffffffffffffffffff167f9a9feb67e24a9d0886eaaa22d0bb21665be1b85a1dcbf671dcc0b57d5ab578678789604051808377ffffffffffffffffffffffffffffffffffffffffffffffff191677ffffffffffffffffffffffffffffffffffffffffffffffff191681526020018281526020019250505060405180910390a250505050505050565b6000610c1f8260008086815260200190815260200160002060000161113e90919063ffffffff16565b905092915050565b6000610c508260008086815260200190815260200160002060000161115890919063ffffffff16565b905092915050565b610c656000801b33610c27565b610cd7576040517f08c379a00000000000000000000000000000000000000000000000000000000081526004018080602001828103825260168152602001807f43616c6c6572206973206e6f7420616e2061646d696e0000000000000000000081525060200191505060405180910390fd5b600260009054906101000a900473ffffffffffffffffffffffffffffffffffffffff1673ffffffffffffffffffffffffffffffffffffffff1663a9059cbb33600260009054906101000a900473ffffffffffffffffffffffffffffffffffffffff1673ffffffffffffffffffffffffffffffffffffffff166370a08231306040518263ffffffff1660e01b8152600401808273ffffffffffffffffffffffffffffffffffffffff1673ffffffffffffffffffffffffffffffffffffffff16815260200191505060206040518083038186803b158015610db557600080fd5b505afa158015610dc9573d6000803e3d6000fd5b505050506040513d6020811015610ddf57600080fd5b81019080805190602001909291905050506040518363ffffffff1660e01b8152600401808373ffffffffffffffffffffffffffffffffffffffff1673ffffffffffffffffffffffffffffffffffffffff16815260200182815260200192505050602060405180830381600087803b158015610e5957600080fd5b505af1158015610e6d573d6000803e3d6000fd5b505050506040513d6020811015610e8357600080fd5b8101908080519060200190929190505050610e9d57600080fd5b565b6000600260009054906101000a900473ffffffffffffffffffffffffffffffffffffffff16905090565b60405180807f5349474e45525f524f4c45000000000000000000000000000000000000000000815250600b019050604051809103902081565b6000801b81565b6000610f28600080848152602001908152602001600020600001611188565b9050919050565b610f5560008084815260200190815260200160002060020154610f50610fb8565b610c27565b610faa576040517f08c379a000000000000000000000000000000000000000000000000000000000815260040180806020018281038252603081526020018061145e6030913960400191505060405180910390fd5b610fb48282611053565b5050565b600033905090565b610fe78160008085815260200190815260200160002060000161119d90919063ffffffff16565b1561104f57610ff4610fb8565b73ffffffffffffffffffffffffffffffffffffffff168173ffffffffffffffffffffffffffffffffffffffff16837f2f8788117e7eff1d82e926ec794901d17c78024a50270940304540a733656f0d60405160405180910390a45b5050565b61107a816000808581526020019081526020016000206000016111cd90919063ffffffff16565b156110e257611087610fb8565b73ffffffffffffffffffffffffffffffffffffffff168173ffffffffffffffffffffffffffffffffffffffff16837ff6391f5c32d9c69d2a47ea670b442974b53935d1edc7fd64eb21e047a839171b60405160405180910390a45b5050565b60008160405160200180807f19457468657265756d205369676e6564204d6573736167653a0a333200000000815250601c01828152602001915050604051602081830303815290604052805190602001209050919050565b600061114d83600001836111fd565b60001c905092915050565b6000611180836000018373ffffffffffffffffffffffffffffffffffffffff1660001b611280565b905092915050565b6000611196826000016112a3565b9050919050565b60006111c5836000018373ffffffffffffffffffffffffffffffffffffffff1660001b6112b4565b905092915050565b60006111f5836000018373ffffffffffffffffffffffffffffffffffffffff1660001b611324565b905092915050565b60008183600001805490501161125e576040517f08c379a000000000000000000000000000000000000000000000000000000000815260040180806020018281038252602281526020018061140d6022913960400191505060405180910390fd5b82600001828154811061126d57fe5b9060005260206000200154905092915050565b600080836001016000848152602001908152602001600020541415905092915050565b600081600001805490509050919050565b60006112c08383611280565b61131957826000018290806001815401808255809150506001900390600052602060002001600090919091909150558260000180549050836001016000848152602001908152602001600020819055506001905061131e565b600090505b92915050565b60008083600101600084815260200190815260200160002054905060008114611400576000600182039050600060018660000180549050039050600086600001828154811061136f57fe5b906000526020600020015490508087600001848154811061138c57fe5b90600052602060002001819055506001830187600101600083815260200190815260200160002081905550866000018054806113c457fe5b60019003818190600052602060002001600090559055866001016000878152602001908152602001600020600090556001945050505050611406565b60009150505b9291505056fe456e756d657261626c655365743a20696e646578206f7574206f6620626f756e6473416363657373436f6e74726f6c3a2073656e646572206d75737420626520616e2061646d696e20746f206772616e74416363657373436f6e74726f6c3a2073656e646572206d75737420626520616e2061646d696e20746f207265766f6b65416363657373436f6e74726f6c3a2063616e206f6e6c792072656e6f756e636520726f6c657320666f722073656c66a2646970667358221220e92aa1d56719c9b4631db0c0ffc044ad40b701cf4f07f5ffc5c565ed0485090a64736f6c63430006020033",
  "source": "pragma solidity ^0.6.0;\n\nimport \"@openzeppelin/contracts/access/AccessControl.sol\";\nimport \"@openzeppelin/contracts/token/ERC20/ERC20.sol\";\n\ncontract TapTapSwap is AccessControl {\n\n    bytes32 public constant SIGNER_ROLE = keccak256(\"SIGNER_ROLE\");\n\n    event Swapped(address indexed recipient, bytes8 trans, uint256 amount);\n\n    mapping(bytes8 => bool) private claimed;\n\n    ERC20 private baseToken;\n\n    /**\n     * @dev Grants `DEFAULT_ADMIN_ROLE` and `SIGNER_ROLE` to the\n     * account that deploys the contract.\n     */\n    constructor(ERC20 _baseToken) public {\n        require(address(_baseToken) != address(0));\n        _setupRole(DEFAULT_ADMIN_ROLE, _msgSender());\n        _setupRole(SIGNER_ROLE, _msgSender());\n        baseToken = _baseToken;\n    }\n\n    /**\n     * @dev Claim an amount of base token based on amount, unique trans and signature must validate.\n     */\n    function claim(uint256 amount, bytes8 trans, uint8 v, bytes32 r, bytes32 s) external {\n        require(claimed[trans] == false, \"Transaction already claimed\");\n\n        // This recreates the message that was signed on the client.\n        bytes32 message = prefixed(keccak256(abi.encodePacked(msg.sender, amount, trans, this)));\n\n        address signer = ecrecover(message, v, r, s);\n        require(hasRole(SIGNER_ROLE, signer), \"Invalid signer\");\n\n        require(baseToken.transfer(msg.sender, amount));\n        claimed[trans] = true;\n\n        emit Swapped(msg.sender, trans, amount);\n    }\n\n    /**\n     * @dev Returns if a given transaction has been claimed.\n     */\n    function hasClaimed(bytes8 trans) public view returns (bool) {\n        return claimed[trans];\n    }\n\n    /**\n     * @dev Builds a prefixed hash to mimic the behavior of eth_sign.\n     */\n    function prefixed(bytes32 hash) internal pure returns (bytes32) {\n        return keccak256(abi.encodePacked(\"\\x19Ethereum Signed Message:\\n32\", hash));\n    }\n\n    function drain() external {\n        require(hasRole(DEFAULT_ADMIN_ROLE, msg.sender), \"Caller is not an admin\");\n        require(baseToken.transfer(msg.sender, baseToken.balanceOf(address(this))));\n    }\n\n    function setBaseToken(ERC20 _baseToken) external {\n        require(hasRole(DEFAULT_ADMIN_ROLE, msg.sender), \"Caller is not an admin\");\n        baseToken = _baseToken;\n    }\n    \n    function getBaseToken() external view returns (ERC20) {\n        return baseToken;\n    }\n}\n",
  "sourcePath": "/Users/tholder/Documents/web3/taptapswap/contracts/TapTapSwap.sol",
  "compiler": {
    "name": "solc",
    "version": "0.6.2+commit.bacdbe57.Emscripten.clang"
  },
  "schemaVersion": "3.3.3",
  "updatedAt": "2021-02-11T22:15:01.505Z",
  "devdoc": {
    "methods": {
      "claim(uint256,bytes8,uint8,bytes32,bytes32)": {
        "details": "Claim an amount of base token based on amount, unique trans and signature must validate."
      },
      "constructor": {
        "details": "Grants `DEFAULT_ADMIN_ROLE` and `SIGNER_ROLE` to the account that deploys the contract."
      },
      "getRoleAdmin(bytes32)": {
        "details": "Returns the admin role that controls `role`. See {grantRole} and {revokeRole}.     * To change a role's admin, use {_setRoleAdmin}."
      },
      "getRoleMember(bytes32,uint256)": {
        "details": "Returns one of the accounts that have `role`. `index` must be a value between 0 and {getRoleMemberCount}, non-inclusive.     * Role bearers are not sorted in any particular way, and their ordering may change at any point.     * WARNING: When using {getRoleMember} and {getRoleMemberCount}, make sure you perform all queries on the same block. See the following https://forum.openzeppelin.com/t/iterating-over-elements-on-enumerableset-in-openzeppelin-contracts/2296[forum post] for more information."
      },
      "getRoleMemberCount(bytes32)": {
        "details": "Returns the number of accounts that have `role`. Can be used together with {getRoleMember} to enumerate all bearers of a role."
      },
      "grantRole(bytes32,address)": {
        "details": "Grants `role` to `account`.     * If `account` had not been already granted `role`, emits a {RoleGranted} event.     * Requirements:     * - the caller must have ``role``'s admin role."
      },
      "hasClaimed(bytes8)": {
        "details": "Returns if a given transaction has been claimed."
      },
      "hasRole(bytes32,address)": {
        "details": "Returns `true` if `account` has been granted `role`."
      },
      "renounceRole(bytes32,address)": {
        "details": "Revokes `role` from the calling account.     * Roles are often managed via {grantRole} and {revokeRole}: this function's purpose is to provide a mechanism for accounts to lose their privileges if they are compromised (such as when a trusted device is misplaced).     * If the calling account had been granted `role`, emits a {RoleRevoked} event.     * Requirements:     * - the caller must be `account`."
      },
      "revokeRole(bytes32,address)": {
        "details": "Revokes `role` from `account`.     * If `account` had been granted `role`, emits a {RoleRevoked} event.     * Requirements:     * - the caller must have ``role``'s admin role."
      }
    }
  },
  "userdoc": {
    "methods": {}
  }
}